:100000000C9434000C943E000C943E000C943E0082
:100010000C943E000C943E000C943E000C943E0068
:100020000C943E000C943E000C943E000C943E0058
:100030000C943E000C943E000C943E000C943E0048
:100040000C943E000C943E000C943E000C943E0038
:100050000C943E000C943E000C943E000C943E0028
:100060000C943E000C943E0011241FBECFEFD8E04C
:10007000DEBFCDBF0E945F000C949F000C94000077
:10008000413059F4FC01FF27808121E030E001C0BC
:10009000220F6A95EAF7282B20830895FC01FF2799
:1000A000413051F4208181E090E001C0880F6A95D1
:1000B000EAF7822B80830895808110820895CF9380
:1000C000DF93CDB7DEB728970FB6F894DEBF0FBE2B
:1000D000CDBF259A2D9A1D821E821F8218868D8182
:1000E0009E81AF81B8858035934CA105B10560F440
:1000F0008D819E81AF81B8850196A11DB11D8D8333
:100100009E83AF83B887EBCF85B115B819821A8269
:100110001B821C8289819A81AB81BC818035934C82
:10012000A105B105B8F689819A81AB81BC810196A0
:10013000A11DB11D89839A83AB83BC83EBCFF89457
:02014000FFCFEF
:00000001FF
