:100000000C9434000C943E000C943E000C943E0082
:100010000C943E000C943E000C943E000C943E0068
:100020000C943E000C943E000C943E000C943E0058
:100030000C943E000C943E000C943E000C943E0048
:100040000C943E000C943E000C943E000C943E0038
:100050000C943E000C943E000C943E000C943E0028
:100060000C943E000C943E0011241FBECFEFD8E04C
:10007000DEBFCDBF0E9493000C949D000C94000045
:1000800090E00895E82FF0E0208181E090E001C049
:10009000880F6A95EAF7413011F4822B02C08095EF
:1000A000822380830895E82FF0E0208181E090E0B2
:1000B00001C0880F6A95EAF7413011F4822B02C023
:1000C0008095822380830895E82FF0E0808190E07E
:1000D00002C0959587956A95E2F781700895E82F9B
:1000E000F0E0808121E030E001C0220F6A95EAF75C
:1000F00028272083089590E0089523E025BD0197E7
:1001000028F016BC26B52A3FE8F3F9CF089593E00E
:1001100095BD90E0981731F016BCA89AA89BFECF29
:100120009F5FF8CF0895259A2D9A84EF0E9487004B
:0E0130002D9884EF0E948700F7CFF894FFCF40
:00000001FF
